:020000040800F2
:10000000605F0020610200084341000817330008C8
:10001000414100080D0C0008C15300080000000019
:10002000000000000000000000000000A101000826
:10003000C10C000800000000FD010008BB4B0008D7
:100040007B0200087B0200087B0200087B0200089C
:100050007B0200087B0200087B0200087B0200088C
:100060007B020008C30C00087B0200087B0200082A
:10007000110C00087B0200087B0200087B020008CC
:100080007B0200087B0200087B0200087B0200085C
:100090007B0200087B0200087B020008C90C0008F4
:1000A0007B0200087B0200087B0200087B0200083C
:1000B0007B0200087B0200087B0200087B0200082C
:1000C0007B0200087B0200087B0200087B0200081C
:1000D0007B020008A95300087B020008B553000802
:1000E0007B0200087B0200087B0200087B020008FC
:1000F0007B0200087B0200087B0200087B020008EC
:100100007B0200087B0200087B0200087B020008DB
:100110007B0200087B020008794C00087B02000883
:100120007B0200087B0200087B0200087B020008BB
:100130007B0200087B0200087B0200087B020008AB
:100140007B0200087B0200087B0200087B0200089B
:100150007B0200087B0200087B0200087B0200088B
:100160007B0200087B0200087B0200087B0200087B
:100170007B0200087B0200087B02000800000000F0
:100180007B0200087B020008DFF810D000F024FC9E
:1001900000480047816D0008AFF30080605F0020D9
:1001A0002C4B19680868B0E8F04F80F30988BFF35A
:1001B0006F8F4FF0000080F311887047000000003F
:1001C00008480068006880F308884FF0000080F35A
:1001D000148862B661B6BFF34F8FBFF36F8F00DF35
:1001E00000BF00BF08ED00E0DFF80C00016841F43B
:1001F00070010160704700BF88ED00E0EFF30980F7
:10020000BFF36F8F134B1A681EF0100F08BF20ED5D
:10021000108A20E9F04F106009B44FF0500080F3CD
:100220001188BFF34F8FBFF36F8F09F037F94FF08D
:10023000000080F3118809BC19680868B0E8F04F25
:100240001EF0100F08BFB0EC108A80F30988BFF3CE
:100250006F8F704708010020EFF3058070470000A2
:100260000648804706480047FEE7FEE7FEE7FEE750
:10027000FEE7FEE7FEE7FEE7FEE7FEE7694C000863
:10028000890100082DE9F05F0546002092469B4653
:1002900088460646814640241BE02846414647469C
:1002A000224600F0F3F953465A46C01A914110D342
:1002B00011461846224600F0DAF92D1A67EB0108BC
:1002C0004F4622460120002100F0D1F917EB00092A
:1002D0004E41201EA4F10104DFDC484631462A4687
:1002E0004346BDE8F09F40EA01039B0703D009E0C5
:1002F00008C9121F08C0042AFAD203E011F8013B12
:1003000000F8013B521EF9D27047D2B201E000F86A
:10031000012B491EFBD270470022F6E710B51346A9
:100320000A4604461946FFF7F0FF204610BD421C5E
:1003300010F8011B0029FBD1801A704710B500226C
:1003400000E0521C835C8C5CA34201D1002BF8D1ED
:10035000D8B2E1B2401A10BD30B5044600200346C1
:1003600000E05B1C934203D2E05CCD5C401BF8D004
:1003700030BD30B505460020034600E05B1C9342CB
:1003800005D2EC5CC85C201A01D1002CF6D130BD3E
:100390002DE9FE4F804681EA0300C00F0C46009015
:1003A00021F0004123F00045B8EB0200A94105D23D
:1003B0004046214690461C460B46024623F000402C
:1003C000104347D0270DC7F30A00C3F30A51029028
:1003D000401A019040286BDAC3F3130040F4801BED
:1003E0000098924620B10023D2EB030A63EB0B0B7B
:1003F00001985946C0F14002504600F038F90646CF
:100400000D4650465946019A00F050F910EB08008D
:100410006141002487EA115284EAE7731A4340D00D
:10042000009A62B3019A012A4FEA075215DC001BB9
:1004300061EB02014FF0004202EA0752CDE90042AF
:10044000001C41F5801132462B4600F087F903B0BD
:10045000BDE8F08F40462146F9E7001B61EB020141
:10046000001C41F5801300185B412018A2F500170D
:1004700047EB030140EAD570B6196D4111E06D08F4
:100480004FEA360645EAC0754FEA0752001B61EB9A
:100490000201001C41F5801149084FEA30000019A3
:1004A000514132462B4603B0BDE8F04F00F047B94A
:1004B0000098012240000023D0EB020263EBE073BE
:1004C000009821464FEAE074B8EB000061EB0401AC
:1004D000E9E783F000435BE781F0004158E72DE94D
:1004E000FE4F81EA030404F0004421F0004100942F
:1004F0004FF0000B23F0004350EA01045ED052EAB3
:1005000003045BD0C3F30A54C1F30A552C44A4F28C
:10051000F3340194A0FB0254C1F3130141F48011A0
:10052000C3F3130343F4801301FB024400FB034EA7
:10053000840A970A44EA815447EA8357A4FB076870
:1005400002958D0A05FB07854FEA932C04FB0C549A
:100550002705029D4FEA065847EA1637B5EB08050E
:100560006EEB070C870E920E47EA811742EA831260
:10057000A7FB0201B6EB0B0164EB00042B0D43EA71
:100580000C335E1844EB1C50DA465146E7FB02017F
:10059000C5F313044FEA0B3343EA14534FEA043212
:1005A000019C43EA0603A4F10C040294009CCDE9EB
:1005B00000B400F0D3F803B0BDE8F08F002001468E
:1005C000F9E70EB5C10F80EAE0700844CA070021C0
:1005D00040F233438DE80E000A460B4600F0BEF8A9
:1005E00003B000BD00F0004230F000400AD0C10D61
:1005F00001F56071C0F3160042EA0151C2084007DC
:100600001143704700200146704701F0004330B4A9
:1006100021F0004150EA010206D00A0DA2F56072F5
:10062000C1F31301002A02DC30BC00207047440FE4
:1006300044EAC104C100E01830BC00EBC25000F035
:1006400047B830B50B46014600202022012409E0BE
:1006500021FA02F59D4205D303FA02F5491B04FA7B
:1006600002F52844151EA2F10102F1DC30BD202A5A
:1006700004DB203A00FA02F1002070479140C2F1F9
:10068000200320FA03F3194390407047202A04DB2B
:10069000203A21FA02F00021704721FA02F3D040FB
:1006A000C2F120029140084319467047202A06DB18
:1006B000CB17203A41FA02F043EAE07306E041FA30
:1006C00002F3D040C2F1200291400843194670471E
:1006D0000029A8BF7047401C490008BF20F0010056
:1006E000704710B4B0FA80FC00FA0CF050EA010434
:1006F00004BF10BC704749B1CCF1200421FA04F4C6
:1007000011FA0CF118BF012121430843A3EB0C019E
:10071000CB1D4FEA00614FEA102042BF002010BC01
:10072000704700EBC35010440029A4BF10BC7047B1
:10073000401C490008BF20F0010010BC704710B5F4
:10074000141E73F1000408DA401C41F100019218F4
:100750005B411A4301D120F0010010BD2DE9F04D9D
:1007600092469B4611B1B1FA81F202E0B0FA80F2F2
:1007700020329046FFF77BFF04460F4640EA0A000E
:1007800041EA0B0153465A46084313D0114653EA37
:10079000010019D0C8F140025046FFF777FF054627
:1007A0000E46504659464246FFF761FF084305D0C2
:1007B000012004E020463946BDE8F08D00200543C5
:1007C00046EAE0762C4337430A986305E40AA0EB37
:1007D00008000022FD0A44EA47540A3002D50020EE
:1007E0000146E9E7010510196941DDE908450019ED
:1007F0006941BDE8F04DA2E72DE9F04D81EA03041F
:1008000004F0004B21F0004514464FF0000A23F09D
:10081000004150EA050220D054EA01021DD0C5F380
:100820000A570246C5F31303C1F31300C1F30A5676
:1008300040F4801543F48013A7EB0608101BD6463E
:1008400008F2FD3873EB050002D308F1010801E05E
:1008500092185B41B8F1000F03DA00200146BDE8B1
:10086000F08D00204FF48011064684460EE0171BE1
:1008700073EB050705D3121B63EB050306434CEA34
:10088000010C49084FEA300092185B4150EA010719
:10089000EDD152EA030012D082EA040083EA050196
:1008A000084305D0101BAB4106D20122002306E00D
:1008B00000224FF0004302E06FF0010253101AEBE8
:1008C00006004CEB085110EB0A0041EB0B01BDE8B0
:1008D000F04DFFF734BF2DE9F04D00231A461B1AE7
:1008E0008A4103DB00200146BDE8F08DC1F30A52C6
:1008F000C1F3130141F480154FF0000BD10702D171
:1009000000186D41521E0027044640F2FF11384680
:1009100001EB620A3E468046024600204FF48011F9
:10092000FFF7B4FEC2197141BB1846EB0100B4EBEE
:10093000030C75EB000C04D3E41A65EB00051746B5
:100940000E46241908F101006D4180463428E3DD8C
:10095000F91946EB0600091BA84103D24FF0FF32FC
:10096000134601E0002213461BEB070046EB0A5139
:10097000BDE8F04DFFF7E3BEC1F30A52C1F3130126
:1009800040F2FF3341F480119A4202DA002001461E
:10099000704740F233439A42A2F2334202DC5242A1
:1009A000FFF774BEFFF763BE30B5041E71F100049B
:1009B00004DB4FF00044404264EB0101141E73F16C
:1009C000000405DB1C464FF00043524263EB040376
:1009D000994208BF904230BD064C074D06E0E068E2
:1009E00040F0010394E8070098471034AC42F6D376
:1009F000FFF7CEFB14A7000834A7000870B58C18C9
:100A000010F8015B15F0070301D110F8013B2A1122
:100A100006D110F8012B03E010F8016B01F8016B0F
:100A20005B1EF9D12B0705D40023521E0DD401F80B
:100A3000013BFAE710F8013BCB1A921C03E013F8D4
:100A4000015B01F8015B521EF9D5A142D8D3002009
:100A500070BD0000464910B54A6822F440324A6031
:100A60004A6843681A434A6001684A6822F48072FF
:100A70004A6001684A68036942EA03224A600168E1
:100A80004A6822F040724A6001684A6883681A43E3
:100A90004A6001688A6822F400628A6001688A6894
:100AA000C3681A438A60816A6FF07062D14201683C
:100AB0008A6822F070628A6001688A680CD0836A52
:100AC0001A438A6001688A6822F040528A6001688D
:100AD0008A68C36A1A4301E022F040528A600168C2
:100AE0008A6822F002028A6001688A68037E42EA0C
:100AF00043028A6090F82010002901684A680FD0EC
:100B000042F400624A6001684A6822F460424A6026
:100B100001684A68174C436A04EB43331A4301E007
:100B200022F400624A600168CA6A22F47002CA6252
:100B30000168CA6A838B104C04EB03531A43CA62E0
:100B400001688A6822F400728A6001688A6890F8F5
:100B5000303042EA43228A6001688A6822F4806267
:100B60008A6001688A68406942EA8020886010BD16
:100B70000023014000E0FFFF0000F0FF2DE9F041FD
:100B8000104F14460D46064600221021384600F04C
:100B900073FD46F0800003F055FFFF2003F052FF85
:100BA00006E0FF2003F04EFF641E05F8010BE4B2DF
:100BB000002CF6D13846BDE8F0410122102100F0AA
:100BC0005BBD0000000002402DE9F0410E4F1446CD
:100BD0000D46064600220121384600F04DFD46F044
:100BE000800003F02FFF06E0FF2003F02BFF641EC0
:100BF00005F8010BE4B2002CF6D13846BDE8F0410F
:100C00000122114600F038BD00040240FEE700005A
:100C1000014800F08BBA0000EC04002001681823A2
:100C2000CAB2103AB2FBF3F2054B6FF30901032A83
:100C30009B5CC36500D9091D8165084670470000AB
:100C4000DCA3000810B5014600208B698A6A4FF0CA
:100C5000C07453B1B3F5005F15D072B1012A0CD046
:100C6000022A0AD0032A09D104E01AB1012A06D0C7
:100C7000022A03D1C96AC90100D5012010BDC96A81
:100C8000A142FAD010BD002AF7D0012AF2D0022AE0
:100C9000F3D0032AF3D010BD30B50468256825F4DD
:100CA00080252560046863608368402B036803D057
:100CB00099600068C26030BD9A600068C16030BD54
:100CC0007047082000F0D4BB202000F0D1BB72B6E2
:100CD000FEE7000078B50024009490F83C20012A3B
:100CE00019D0012280F83C200A6807230568092AE8
:100CF00013D9EE680A3A02EB420293409E43EE603B
:100D00000B788A680A3B03EB43039A400368DD686B
:100D10002A43DA6010E0022078BD2E6902EB42021D
:100D200093409E432E610B788A6803EB43039A40FD
:100D300003681D692A431A614A681F23072A13D2D0
:100D400005686E6B521E02EB820293409E436E63F7
:100D50000B790A885B1E92B203EB83039A40036807
:100D60005D6B2A435A6327E005680D2A12D22E6B69
:100D7000D21F02EB820293409E432E630B790A88B6
:100D8000DB1F92B203EB83039A4003681D6B2A4377
:100D90001A6311E0EE6A0D3A02EB820293409E4321
:100DA000EE620B790A880D3B92B203EB83039A4003
:100DB0000368DD6A2A43DA62164B0568144A9D42CD
:100DC00006D10D68122D03D1556845F48005556094
:100DD00005689D4218D10B68102B01D0112B13D13F
:100DE000536843F400035360096810290CD10A4981
:100DF0000A4A0968B1FBF2F101EB8101490000E008
:100E0000491E00910029FBD180F83C40002078BDAC
:100E10000023014000200140CC01002040420F008F
:100E200070B504004FF0000503D0206C002610B10F
:100E300007E0012070BD204600F01CF8666484F8CD
:100E40003C60206CC00610D4206C20F4885040F028
:100E5000020020642046FFF7FDFD6664206C20F050
:100E6000020040F00100206400E0012584F83C60AD
:100E7000284670BD10B586B0044614216846FFF7B9
:100E80004BFA174B2268002116489A4209D1016893
:100E900041F480710160006800F48070059006B034
:100EA00010BD114B9A42FAD1026842F4806202608E
:100EB000006800F4806005900A481438026842F027
:100EC00020020260006800F02000059018150090D4
:100ED0000320CDE901016946044800F0D5FADEE7B8
:100EE000002001404438024000220140001402402A
:100EF00070B5040003D094F8200010B104E0012084
:100F000070BD204600F082F82068016841F00101C0
:100F1000016000F0B7FB0546052604E000F0B2FBD7
:100F2000401B0A2811D820684068C007F6D0206806
:100F3000016821F00201016000F0A4FB05460BE00E
:100F400000F0A0FB401B0A2806D9606A40F400307C
:100F5000606284F82060D2E7206840688007EFD4A0
:100F6000207E0128206801683DD021F080010160C9
:100F7000607E01282068016838D021F040010160BE
:100F8000A07E01282068016833D021F02001016093
:100F9000E07E0128206801682ED041F01001016038
:100FA000207F01282068016829D021F00801016014
:100FB000607F01282068016824D021F004010160CD
:100FC000D4E902010843D4E90412114308436168DB
:100FD000491E08432168C86100206062012084F82E
:100FE0002000002070BD41F08001C0E741F04001C9
:100FF000C5E741F02001CAE721F01001CFE741F039
:101000000801D4E741F00401D9E7000010B586B02B
:10101000044614216846FFF77FF913492068884287
:101020001FD112480021026842F00072026000687D
:1010300000F0007005900D481038026842F0080278
:1010400002600068022200F0080005900320CDE94C
:101050000210CDE90002092004906946044800F01E
:1010600013FA06B010BD0000006400404038024092
:10107000000C02402DE9F0410446876D00F002FBB0
:10108000064694F835000025022806D080206065C9
:1010900084F834500120BDE8F0812068016821F017
:1010A000160101602068416921F080014161206CD6
:1010B00008B9A06C20B12068016821F00801016026
:1010C0002068016821F0010101600CE000F0DAFA0B
:1010D000801B052807D920206065032084F835008F
:1010E00084F83450D7E720680068C007EED194F840
:1010F0005C103F208840B860012084F8350084F8F7
:1011000034500020C7E790F83510022903D0802121
:10111000416501207047052180F83510006801689D
:1011200021F0010101600020704700002DE9F84323
:1011300004464FF00009CDF8009063484FF4165173
:10114000A56D0068B0FBF1F72E6894F85C100820DC
:1011500000FA01F131420FD021680A6852070BD51D
:101160000A6822F004020A6094F85C108840A860C3
:10117000606D40F00100606594F85C104FF001086C
:1011800008FA01F0304208D021684969090604D5FF
:10119000A860606D40F00200606594F85C10042067
:1011A0008840304208D021680968890704D5A860C2
:1011B000606D40F00400606594F85C101020884079
:1011C000304218D021680968090714D5A860206842
:1011D0000168490304D50068000308D5A16C07E045
:1011E0000168C90503D4016821F008010160216C80
:1011F00009B12046884794F85C102020884030428E
:1012000031D021680968C9062DD5A86094F8350049
:1012100005282068016806D0490347D50068000307
:101220001DD4616C1CE021F0160101602068416949
:1012300021F080014161206C08B9A06C20B12068C8
:10124000016821F00801016094F85C103F2088409B
:10125000A86084F8358084F83490216D1FE0E16B3C
:1012600009B120468847606D00282BD0606DC0070B
:1012700014D0052084F835002068016821F00101B0
:1012800001600098401C0090B84203D820680068B4
:10129000C007F6D184F8358084F83490E16C0029D9
:1012A00010D001B02046BDE8F04308470168C905E9
:1012B000D5D4016821F01001016084F8358084F8EC
:1012C0003490CCE7BDE8F883CC0100202DE9F04153
:1012D000044600F0D7F906465CB1022084F83500D8
:1012E000002584F834502068016821F00101016074
:1012F0000DE00120BDE8F08100F0C4F9801B052855
:1013000005D920206065032084F83500F2E72068C5
:101310000068C007F0D12268116820480140D4E974
:1013200001031843D4E90336334318436369184370
:10133000A3691843E3691843236A18430843616AA1
:10134000042903D1D4E90B13194308431060206822
:101350004069666A20F0070130460E4301270428E1
:101360000CD1A06A0643E06A40B12046FFF76AFC50
:1013700020B14020606584F83570BAE72068466186
:101380002046FFF74BFC94F85C203F2191408160A0
:10139000656584F835700020ACE700003F8010F0F0
:1013A0002DE9F0410446866D90F8340000250128AF
:1013B0000DD0012084F8340094F835700020012FFE
:1013C00007D084F8340002252846BDE8F0810220C9
:1013D000FBE7022784F8357060652046FFF75CFC68
:1013E00094F85C103F208840B0602068016841F0AC
:1013F00016010160206C20B12068016841F00801ED
:1014000001602068016841F001010160DCE7000033
:1014100070B5044600F036F90546601C02D0044859
:101420000078044400F02EF9401BA042FAD370BDAE
:10143000C0010020A821484310B54FF0E0214C69BD
:101440008B698A699A42FCD002D2A3EB020202E0C5
:10145000A4EB02021A448242F3D310BD202804D127
:1014600002480121006805F0D3BC7047D400002079
:10147000044910B50A68024202D00860FFF7EEFF87
:1014800010BD0000143C01402DE9F84FDFF8BCA16D
:101490000022012503264FF00F090AF1040BAAF1DF
:1014A000040E00BF0B6805FA02F42340A34270D17A
:1014B0000F7907F00307012F01D0022F16D187689B
:1014C0004FEA420806FA08FC27EA0C07D1F80CC0DC
:1014D0000CFA08FC4CEA070CC0F808C04768A743A0
:1014E0000C79C4F3001494403C4344600C79E44309
:1014F000A4070AD0C4684FEA420C06FA0CF7BC43B2
:101500008F6807FA0CF72743C7600C7904F00304CF
:10151000022C12D1D40800EB840CDCF820405707D1
:10152000FF0E09FA07F824EA0804D1F8108008FA37
:1015300007F848EA0408CCF8208004684FEA420C17
:1015400006FA0CF7BC430F7907F0030707FA0CF70C
:10155000274307604C6814F4403F70D03C4C276828
:1015600047F480472760246822F0030704F480448E
:101570000094384C07EB040CDCF8084897074FEA56
:10158000177809FA08F7BC43334FB84202D1002755
:1015900024E054E0314FB84201D101271EE0304F22
:1015A000B84201D1022719E02E4FB84201D10327DA
:1015B00014E02D4FB84201D104270FE02B4FB84261
:1015C00001D105270AE02A4FB84201D1062705E0DC
:1015D000284FB84201D1072700E0082707FA08F78B
:1015E0002743CCF80878DAF800405746D1F804C011
:1015F0009C435FEACC2C00D51C433C60DBF80040E8
:101600005F46D1F804C09C435FEA8C2C00D51C4394
:101610003C60DEF800407746D1F804C09C435FEAA6
:101620008C3C00D51C433C60084F083F3C68D1F817
:1016300004C09C435FEACC3C00D51C433C60521C78
:10164000102AFFF42FAFBDE8F88F0000083C0140DE
:1016500044380240003001400000024000040240D3
:1016600000080240000C024000100240001402403A
:1016700000180240001C02400AB181617047090451
:10168000FBE700000148806870470000C0010020AF
:1016900070B5040025D094F83D00002520B984F8E9
:1016A0003C50204600F052FA242084F83D00206887
:1016B000016821F0010101602068016841F40041E6
:1016C00001602068016821F40041016000F006FC1F
:1016D0004D4A6168914201D84C4900E04C4988422A
:1016E00001D2012070BD4B492368B0FBF1F15E6867
:1016F00026F03F060E435E606368934206D94FF4BE
:10170000967359434FF47A73B1FBF3F12368491C84
:101710001E6A26F03F06314319626168914210D873
:101720004900401EB0FBF1F2521CC2F30B02042A26
:1017300001D2042022E0B0FBF1F0401CC0F30B000A
:101740001CE0A268F2B301EBC10303EB0116431ED8
:10175000B3FBF6F35B1C43F480431B0549D092B303
:1017600001EBC10202EB0111401EB0FBF1F0401C85
:10177000C0F30B0040F4804040F400402168CA6987
:101780004CF6FF739A431043C861D4E90710014334
:101790002068026822F0C00211430160D4E903010D
:1017A00001432068826848F2FF339A431143816005
:1017B000D4E9050108432168CA6822F0FF021043FA
:1017C000C86001E00EE016E02068016841F0010108
:1017D00001602564202084F83D00256384F83E5094
:1017E000002070BD01EB4106431EB3FBF6F35B1C0A
:1017F000B3E70120C2E701EB4101401EB0FBF1F06D
:10180000401CC0F30B00B7E7A086010080841E00D7
:1018100000093D0040420F002DE9FF4F83B09A467A
:10182000DDE9118793460446DDF84090FFF72AFF73
:10183000054694F83D00202870D1192301227449EF
:101840002046009501F07EFE0028F5D194F83C007A
:10185000012863D0012084F83C0020680168C90792
:1018600003D1016841F0010101602068016821F4A1
:1018700000610160222084F83D00402084F83E0091
:1018800000262664C4F82490A4F82A80608D208560
:101890006048E062CDE9007553465A4620460499F7
:1018A00001F052FD002879D1208DD0B1012821D03E
:1018B0000228206824D0416980690090208D032887
:1018C00066D801282BD0544902283B464FF000022D
:1018D000009557D08846204601F034FE00285DD19F
:1018E0003AE02068416981690091016841F4007122
:1018F00001607DE02068016821F480610160F0E70B
:10190000016821F4806101602068016841F4006190
:101910000160206841698069009069E075E02A46AD
:101920003946204601F0B4FE88BB54E020680168C7
:1019300041F40071016020680069616A0870606AA2
:10194000401C6062218D491E2185618D491E618583
:1019500021680969017042E02068016821F4806112
:10196000016020680069616A0870606A401C6062FA
:10197000208D401E2085608D401E60853B460022E4
:1019800041460095204601F0DDFD00B9CEE705E0B7
:101990002A463946204601F07BFE18B1012007B0E7
:1019A000BDE8F08F20680069616A0870606A401CB9
:1019B0006062208D401E81B22185608D401E608551
:1019C00020684269D243520712D4032903D1016827
:1019D00021F48061016020680069616A0870606AB2
:1019E000401C6062208D401E2085608D401E6085F9
:1019F000208D00287FF462AF202084F83D0084F819
:101A00003E6084F83C600020C9E70220C7E7000080
:101A1000020010000000FFFF040001002DE9FF4F4D
:101A200083B09A46DDE9119793460446DDF840807D
:101A3000FFF728FE054694F83D0020287FD11923A2
:101A4000012240492046009501F07CFD002876D116
:101A500094F83C00012872D0012084F83C002068F2
:101A60000168C90703D1016841F0010101602068E4
:101A7000016821F400610160212084F83D004020CC
:101A800084F83E0000262664C4F82480A4F82A9036
:101A9000608D20852C48E062CDE9007553465A469A
:101AA0002046049901F0CEFC70B930E02A46394650
:101AB000204601F025FE58B1206C042804D120688E
:101AC000016841F400710160012007B0BDE8F08FAA
:101AD000606A216800780861606A401C6062218D3C
:101AE000491E89B22185628D521E62852268536922
:101AF000DB435B070BD469B100781061606A401C5E
:101B00006062208D401E2085608D401E6085208D86
:101B10000028CBD12A463946204601F0E7FC0028B0
:101B2000CAD154F83D0B016841F4007101602020D6
:101B300004F81E09E67766770020C6E7FFE7022073
:101B4000C3E70000020010000000FFFFF0B587B0FF
:101B5000044614216846FEF7DFFB1A4920688842D4
:101B60002DD11948016841F004010160016801F0BC
:101B700004010591016841F001010160006812242F
:101B800000F0010005904FF40070012503260427A2
:101B90008DE8F10069460D48FFF776FC28028DE8D4
:101BA000F10069460A48FFF76FFC074810300168EA
:101BB00041F400010160006800F40000059007B0E6
:101BC000F0BD0000005C00403038024000080240D8
:101BD0000000024002488168027811448160704729
:101BE000C00100200B4810B5016841F4007101608C
:101BF000016841F480610160016841F48071016015
:101C0000032000F09FF80F2000F006F800F050F8D5
:101C1000002010BD003C024030B505461F4887B08B
:101C20000024016841F010010160006806A900F07D
:101C30001000009001A800F031F90498A8B100F05C
:101C40004DF940001649174AB0FBF1F11648491EFC
:101C5000026040F2E732C0E90324C0E90114846164
:101C600000F056FD040003D015E000F037F9E9E775
:101C70000D4800F0ABFD04000DD1362000F034F823
:101C8000102D07D200222946362000F03BF80748E5
:101C9000056000E0012407B0204630BD4038024016
:101CA00040420F00001000404C050020C4010020FD
:101CB0000C4882B0016841F480410160006800F482
:101CC000804000900748001F016841F0805101608A
:101CD0000068002200F0805000900F21901E02B09A
:101CE00000F010B844380240002809DB00F01F0261
:101CF000012191404009800000F1E020C0F800116E
:101D000070470000F0B40E4B1B680C46C3F302236F
:101D1000C3F10705042D00D90425191D072901D297
:101D2000002300E0DB1E012606FA05F1491E2140D2
:101D300099409E40761E16403143F0BC03F0C7BC6C
:101D40000CED00E0064900F0070208684FF6FF03BB
:101D5000184040EA0220034A104308607047000020
:101D60000CED00E00000FA052DE9F0470E460500F5
:101D700065D0DFF81481D8F80000F7B200F0070052
:101D8000B04207D288F80070D8F8000000F00700D1
:101D9000B04254D128683D4C810712D5400703D585
:101DA000206840F4E05020602878000703D52068C0
:101DB00040F4604020602068A96820F0F0000843EB
:101DC00020602878C0072DD030496868083901287C
:101DD00012D0022813D0032811D0096889070029DE
:101DE0002DDA216821F0030101432160FFF74AFC4D
:101DF000814641F2883A0EE009688903EFE70968F5
:101E00008901ECE7FFF73EFCA0EB0901514502D93F
:101E10000320BDE8F0872068696800F00C00B0EB93
:101E2000810FEFD1D8F80010404601F00701B14210
:101E300007D90770006800F00700B04201D0012008
:101E4000E7E72878400705D52068E96820F4E050E6
:101E5000084320602878000706D52068296920F407
:101E6000604040EAC100206000F058F82168084A4C
:101E7000C1F30311515CC840064908600648006878
:101E8000FFF7CAFE0020C4E7003C024008380240C9
:101E9000E4A30008CC010020C40100200F2202604E
:101EA0000C4A136803F003034360136803F0F00364
:101EB0008360136803F4E053C36012684FF4E05387
:101EC00003EAD20202610448006800F007000860DB
:101ED0007047000008380240003C024004480549B1
:101EE00000680968044AC1F38221515CC840704708
:101EF000CC01002008380240F4A30008044805493A
:101F000000680968044AC1F34231515CC840704717
:101F1000CC01002008380240F4A30008154810B591
:101F2000006810F00C02144813D01449042A0FD092
:101F3000082A0ED10F4C241F2268236802F03F02AA
:101F40005B0207D52068C0F38810A0FB010106E002
:101F5000084610BD2168C1F38811A1FB00010023D0
:101F6000FEF790F92168C1F30141491C4900B0FB1B
:101F7000F1F010BD083802400024F400001BB70047
:101F80002DE9F84F04006ED02078DFF84C93C0079D
:101F9000A9F104054AD009F104000168C1F38101E7
:101FA000012908D00068C0F3810002280AD1D9F8BD
:101FB0000000400206D52868800337D560680028F5
:101FC000E1D033E06068B0F5803F10D0B0F5A02FCD
:101FD000286810D020F480302860286820F4802001
:101FE00028606068A8B1FFF74DFB06460DE0286841
:101FF00040F48030F4E740F480202860F7E700BF29
:10200000FFF740FB801B642873D828688003F7D54E
:102010000CE0FFF737FB064605E000BFFFF732FB99
:10202000801B6428F0D828688003F7D42078DFF874
:10203000AC8280074FF0000A3ED5A748001D01681A
:1020400011F00C0F08D00068C0F3810002280BD1FA
:10205000D9F80000400207D42868800716D5E06848
:10206000012800D112E033E1E068B8B10120C8F8DE
:102070000000FFF707FB064605E000BFFFF702FB85
:10208000801B0228C0D828688007F7D528682169F6
:1020900020F0F80040EAC10028600DE0C8F800A078
:1020A000FFF7F0FA064604E0FFF7ECFA801B02287F
:1020B0001FD828688007F7D42078000722D5864FDC
:1020C00087486169703771B101210160FFF7DAFA61
:1020D000064604E0FFF7D6FA801B022809D83868C4
:1020E0008007F7D50EE0C0F800A0FFF7CBFA064650
:1020F00005E082E0FFF7C6FA801B02287DD8386829
:102100008007F7D42078400768D5DFF8CCB10027E6
:102110000BF13C0BDBF80000C0000BD4DBF8001027
:1021200041F08051CBF80010DBF80000012700F0EF
:10213000805000906B4E3068C00510D4306840F479
:1021400080703060FFF79EFA009005E0FFF79AFA82
:102150000099401A022850D83068C005F6D55E4E66
:10216000A0686C3601280FD00528306810D020F008
:1021700001003060306820F004003060A068B8B121
:10218000FFF780FA00900FE0306840F00100F4E7BC
:1021900040F004003060F7E7FFF774FA0099411A45
:1021A00041F28830814266D830688007F4D50EE06D
:1021B000FFF768FA009007E0FFF764FA0099411A08
:1021C00041F28830814256D830688007F4D42FB16C
:1021D000DBF8001021F08051CBF80010A069C8B3E3
:1021E0003D49091D0968C1F3810102294AD002282D
:1021F000504607D0C8F8600000E03CE0FFF742FA24
:1022000004463BE04746C8F86000FFF73BFA064645
:1022100005E000BFFFF736FA801B02282BD828689C
:102220008001F7D4D4E907010843A16A2E4A49087E
:1022300002EB0141626A41EA8211084394F82C10D2
:1022400040EA0161C9F8001001203866FFF71AFA68
:10225000044606E03EE000BFFFF714FA001B022828
:1022600009D828688001F7D534E000BFFFF70AFAE3
:10227000001B022802D90320BDE8F88F28688001DE
:10228000F4D427E00128F7D0D9F80000E26900F47F
:10229000800191421CD1226A00F03F01914217D186
:1022A00047F6C071626A0140B1EB821F10D1A26A89
:1022B0004FF0FF3300F4403103EB5202B1EB024F19
:1022C00006D194F82C1000F07060B0EB016F01D0D3
:1022D0000120D1E70020CFE7043802400000474248
:1022E000800E4742007000400000FFFF70B5040000
:1022F00009D0606A002540B125616561A56294F846
:10230000510040B10CE0012070BD6068B0F5827FE3
:10231000F4D0E561F2E784F85050204600F044F82C
:10232000022084F851002068016821F0400101601A
:10233000A088218900F4827001F404410843A18936
:1023400001F400610843217C01F002010843217D72
:1023500001F001010843218B01F400710843217F42
:1023600001F03801084394F8201001F0800108437F
:10237000218D01F40051084321680860A0690421FF
:1023800001EA104094F8241001F01001084321687C
:1023900048602068C16921F40061C1616565012060
:1023A00084F85100002070BDF0B587B004461421B8
:1023B0006846FDF7B1FF1C492068884232D11B48AE
:1023C0000024016841F480510160006800F48050ED
:1023D000059016481438016841F002010160016857
:1023E00001F002010591016841F0010101600068FE
:1023F000022500F0010005901820CDE9000502AA91
:102400000326052782E8D00069460948FFF73CF813
:102410008020CDE9000502AA694682E8D00005487F
:10242000FFF732F807B0F0BD0030014044380240F9
:1024300000040240000002402DE9FF4F81B01D461C
:10244000934604464FF001090E9EFFF71BF907461D
:1024500094F851006168012806D0B1F5827F3CD123
:10246000A168C9BB042838D10298002871D0BBF1FB
:10247000000FFBD0002DF9D094F8500001282CD08B
:102480004FF0010A84F850A094F85100042802D0BB
:10249000052084F851004FF00008C4F85480C4F8B7
:1024A00038B0E587A58702992163E586A586C4F83B
:1024B0004080C4F8448020680168490603D401685C
:1024C00041F040010160E068B0F5006F606808D03D
:1024D000F0B3012D49D081E0FFE7022005B0BDE84F
:1024E000F08F08B1012D39D1206B21680088C860B8
:1024F000206B801C2063E08E401EE0862EE020686A
:10250000816889070FD5E18E69B1B9F1010F0AD150
:10251000216B0988C160206B801C2063E08E401E07
:10252000E0864FF0000920688168C9070CD0E18F70
:1025300051B1C068A16B0880A06B801CA063E08FC4
:10254000401EE0874FF00109FFF79CF8C01B01E037
:102550000BE067E0B04201D3701C50D1E08E002840
:10256000CDD1E08F0028CAD13EE0206B21680078F1
:102570000873206B401C2063E08E401EE0862DE037
:102580002068816889070FD5E18E69B1B9F1010F23
:102590000AD1216B09780173206B401C2063E08E07
:1025A000401EE0864FF0000920688168C9070CD002
:1025B000E18F51B1C068A16B0870A06B401CA06393
:1025C000E08F401EE0874FF00109FFF75BF8C01B6A
:1025D000B04202D3701C01D011E086B1E08E002819
:1025E000CED1E08F0028CBD13A463146204602F0CA
:1025F000F3F950B12020606584F8508012E084F82F
:1026000051A084F85080032068E7A06818B92068BA
:10261000C1688068009084F851A084F85080606D93
:102620000028F1D0012059E77047704710B590F8A5
:102630003C20012A22D0012280F83C20CA688C6804
:1026400022F4407222434C6822F4806222430C68D8
:1026500022F4006222430C6922F4805222434C6926
:1026600022F400522243C969002322F480420A4323
:1026700001684A6480F83C30002010BD022010BD83
:1026800070B590F83C20012A32D0012480F83C40FB
:10269000022280F83D2003685A689D6822F0700687
:1026A0000A6832435A60134B02689A4214D0B2F15E
:1026B000804F11D0104B9A420ED0104B9A420BD043
:1026C0000F4B9A4208D00F4B9A4205D00E4B9A42BC
:1026D00002D00E4B9A4204D1496825F08003194379
:1026E000916080F83D40002180F83C10084670BDA4
:1026F000022070BD000001400004004000080040BE
:10270000000C00400004014000400140001800405F
:1027100010B5040003D094F83D0010B107E001208B
:1027200010BD002084F83C00204600F01FF8022075
:1027300084F83D00211D206802F0A4FA012084F8ED
:10274000460084F83E0084F83F0084F8400084F896
:10275000410084F8420084F8430084F8440084F87F
:10276000450084F83D00002010BD000008B5134A64
:1027700001681348914207D1016841F001010160ED
:10278000006800F001000BE00E4A91420AD10C48AB
:10279000001F016841F004010160006800F00400BE
:1027A000009008BD084A9142FBD1016841F4003114
:1027B0000160006800F40030F2E700000000014012
:1027C00044380240000800400044014090F83D10A9
:1027D000012901D001207047022180F83D100168D5
:1027E000CA6842F00102CA6000681149884214D0E8
:1027F000B0F1804F11D00F4988420ED00E49884267
:102800000BD00E49884208D00D49884205D00D49A9
:10281000884202D00C49884204D1816801F0070146
:10282000062903D0016841F00101016000207047D2
:10283000000001400004004000080040000C00407F
:1028400000040140004001400018004070B50446FB
:1028500090F83C000025012817D0012684F83C6040
:10286000022084F83D002068826822F0770222F47A
:102870007F4282600868502838D00DDC20284FD075
:1028800005DC90B3102811D14AE0022070BD302839
:1028900046D040280AD13BE060282FD070280DD0C8
:1028A000B0F5805F03D0B0F5005F12D0012584F849
:1028B0003D60002084F83C00284670BDCB68D1E91B
:1028C0000121206802F053FA2068816841F0770105
:1028D00009E0CB68D1E90121206802F048FA2068BC
:1028E000816841F480418160E1E719E0CA68496884
:1028F000206802F011FB5021206806E0CA68496890
:10290000206802F01AFB6021206802F03AFACEE754
:10291000CA684968206802F0FFFA40212068F4E79D
:10292000226801461046F0E770472DE9F041044661
:102930000068C66805694FF00007A90713D5B107FD
:1029400011D5F91E01610120207720688069800778
:10295000204602D0FFF7E8FF04E000F0DBF8204655
:1029600000F06DF92777680716D5700714D5216830
:102970006FF004000861022020772068806910F45D
:10298000407F204602D0FFF7CFFF04E000F0C2F8FE
:10299000204600F054F92777280715D5300713D5BE
:1029A00021686FF008000861042020772068C06962
:1029B0008007204602D0FFF7B7FF04E000F0AAF836
:1029C000204600F03CF92777E80616D5F00614D526
:1029D00021686FF010000861082020772068C06926
:1029E00010F4407F204602D0FFF79EFF04E000F085
:1029F00091F8204600F023F92777E80708D0F00780
:102A000006D021686FF001000861204600F07CF9D3
:102A1000280608D5300606D521686FF080000861C9
:102A20002046FFF701FE680608D5700606D5216826
:102A30006FF040000861204600F070F9A8060AD542
:102A4000B00608D521686FF0200008612046BDE877
:102A5000F041FFF7EABDBDE8F081000070B586B037
:102A6000044614216846FDF757FC234E23680021D5
:102A70002248022203240125B34211D1036843F006
:102A800010030360006802AB00F01000059083E8BB
:102A900032004FF4D440CDE900026946184812E0F4
:102AA000184EB34213D1036843F008030360006873
:102AB00000F00800059030140090CDE90121CDE927
:102AC000031269461048FEF7DFFC06B070BD0F49DF
:102AD0008B42FAD1016841F0200101600068CDE924
:102AE000025400F0200005904020CDE90002694624
:102AF00004940748E7E70000000001403038024036
:102B00000010024000080040000C02400044014058
:102B100000140240704770B5044690F83C0000264F
:102B20000D4601280FD0012084F83C006AB1042A28
:102B30001DD0082A2FD00C2A3FD00126002084F86F
:102B40003C00304670BD022070BD206802F022F9C2
:102B50002068816941F0080181612068816921F064
:102B600004018161206881692A69114311E02068AC
:102B700002F040F92068816941F4006181612068B8
:102B8000816921F480618161206881692A6941EA53
:102B900002218161D2E7206802F062F92068C169F0
:102BA00041F00801C1612068C16921F00401C161DF
:102BB0002068C1692A69114311E0206802F084F994
:102BC0002068C16941F40061C1612068C16921F4D4
:102BD0008061C1612068C1692A6941EA0221C1613D
:102BE000ACE710B5040003D094F83D0010B107E045
:102BF000012010BD002084F83C00204600F01EF8A3
:102C0000022084F83D00211D206802F03BF80120DD
:102C100084F8460084F83E0084F83F0084F84000C1
:102C200084F8410084F8420084F8430084F84400AA
:102C300084F8450084F83D00002010BD70477047BF
:102C400010B50446022249B104290ED0082913D038
:102C500094F84100012816D0012010BD94F83E00E0
:102C60000128F9D184F83E200FE094F83F000128B4
:102C7000F2D184F83F2008E094F840000128EBD11D
:102C800084F8402001E084F841200122206802F00D
:102C900061F816492068164A884201D0904203D153
:102CA000436C43F4004343642068884213D0B0F17E
:102CB000804F10D00F4988420DD00F4988420AD06A
:102CC0000E49884207D0904205D00D49884202D073
:102CD0000C49884204D1816801F00701062903D01C
:102CE000016841F001010160002010BD00000140B9
:102CF000000401400004004000080040000C0040B7
:102D0000004001400018004000680349884201D19A
:102D1000FEF760BF7047000000100040704738B5F4
:102D2000044690F84200202801D0022038BD51B15D
:102D30004AB10120206300206063204602F0AAFA15
:102D4000216B012901D0012038BD21680A6849683A
:102D5000009121680C3151E8002F42F0100241E847
:102D60000023002BF5D138BD10B50949006809686A
:102D700088420CD1064800F00FF8064804F082FFA4
:102D8000BDE81040322203490148FFF7C8BF10BD1B
:102D90005C040020C405002010B5044600684069AA
:102DA00094F84110C0F3C010212911D180B12068DE
:102DB000143050E8001F21F0800140E80012002A82
:102DC000F5D1A06B08B1FEF755F9204602F06CF979
:102DD0002068406994F84210C0F38010222911D174
:102DE00080B12068143050E8001F21F0400140E815
:102DF0000012002AF5D1E06B08B1FEF73BF920463E
:102E000002F02BF9002010BD70470000F8B50168F2
:102E100004460868CA684B6910F00F0F4FF00005B0
:102E200059D003F0010602F49077374365D0C1070B
:102E300005D0D10503D5616C41F001016164410702
:102E400005D5D90703D0616C41F0020161648107A7
:102E500005D5D90703D0616C41F004016164010715
:102E600007D502F02001314303D0616C41F0080125
:102E70006164616C00293AD0800604D5900602D5C1
:102E8000204602F01FF920684069616CC0F3801091
:102E9000090700D460B3204602F0DFF820684069DB
:102EA000400621D52068143050E8001F21F0400171
:102EB00040E80012002AF5D1E06BA8B17249016523
:102EC000E06BFEF720F9002811D0E06B016D01B036
:102ED000BDE8F040084783060FD593060DD5204680
:102EE000BDE8F84002F0EEB82046FFF78DFFF8BDD0
:102EF0002046FFF789FF6564F8BD266B2023012E6D
:102F00007ED1C6067CD5D6067AD50868486800907A
:102F100048694FF0020640064DD5E26B10684068E4
:102F20004FF480770004000C3AD0A18D814237D94C
:102F3000E085D069B8422DD020680C3050E8001FE1
:102F400021F4807140E80012002AF5D12068143085
:102F500050E8001F21F0010140E80012002AF5D1DD
:102F60002068143050E8001F21F0400140E80012B2
:102F7000002AF5D184F84230256320680C3050E8EF
:102F8000001F21F0100140E80012002AF5D1E06B8B
:102F9000FEF770F86663A08DE18D401A81B206E0FD
:102FA000A18D8142A8D1D069B842A5D166632046DF
:102FB000FFF7DAFEF8BDA08DE18D401A81B2E08DF9
:102FC0000028F7D00029F5D020680C3050E8002FF9
:102FD00022F4907240E80027002FF5D120681430C9
:102FE00050E8002F22F0010240E80027002FF5D121
:102FF00084F84230256320680C3050E8002F00E050
:1030000006E022F0100240E80023002BF3D1CDE7C8
:1030100005062BD5150629D594F841002128C9D1DC
:10302000A068B0F5805F01D12069B0B1206A411C71
:103030002162216800784860E08C401E0004000C8A
:10304000E084B7D12068C16821F08001C1602068A8
:10305000C16841F04001C160F8BD206A0088C0F33A
:1030600008004860206A801C2062E5E74006F3D52E
:103070005006F1D5CA68204622F04002CA6084F8A2
:10308000413000F047F9F8BD5F4F000870B504000B
:1030900004D094F84100002510B106E0012070BD75
:1030A00084F84050204600F023F8242084F84100A2
:1030B0002068C16821F40051C160204602F064F824
:1030C0002068016921F4904101612068416921F083
:1030D0002A0141612068C16841F40051C160656402
:1030E000202084F8410084F842006563002070BD10
:1030F000F0B587B0074614216846FDF70DF953492E
:10310000DFF844C13B680024504A143902250326E5
:103110000720634533D1136843F01003136012682E
:1031200002F0100205920A6842F002020A600A6880
:1031300002F0020205920A6842F001020A60096880
:10314000074601F0010105918021CDE9001502AB90
:10315000694683E8D0003E48FEF796F92802CDE99B
:10316000000502AB694683E8D0003A48FEF78CF9C7
:10317000002205212520FEF7C5FD252040E0DFF8CF
:10318000D8C0634540D1314A121F136843F48023ED
:103190001360126802F4802205920A6842F0040269
:1031A0000A600968029401F0040105914FF440613E
:1031B000CDE90015CDE9036069462848FEF764F9BA
:1031C000284D274828604FF00060C5E901044014ED
:1031D000C5E9034080106C61C5E906404FF44030FA
:1031E000C5E908042846FEF771F808B1FDF76FFD40
:1031F000FD63002205212720AF63FEF783FD272012
:10320000FEF772FD07B0F0BD17488342FAD110688F
:1032100040F020001060106800F020000590086861
:1032200040F0400008600868029400F040000590FB
:103230004FF48440CDE900050820CDE903606946DC
:103240000A48FEF721F9DDE700100140443802404A
:103250000004024000000240004800400008024014
:1032600028600240EC0400200014014000180240D5
:10327000704770472DE9F843044690F8410098469E
:1032800016460D46202802D00220BDE8F88385B1FD
:103290007EB100206064212084F84100FEF7F2F93D
:1032A000A6848146E684A0682027B0F5805F02D01E
:1032B00003E00120E9E7206910B12E4600250EE069
:1032C00000260CE08021204602F034F8A8B9C6B1EF
:1032D00016F8010B21684860E08C401EE084E08C09
:1032E0004B464FF00002CDF800800028EAD14FF0A5
:1032F0004001204602F01EF840B184F841700320DE
:10330000C3E735F8020BC0F30800E3E784F8417027
:103310000020BAE77047FEE701684A69D2435205C8
:103320000FD46FF480624A61002140F8301F2022E0
:1033300042738173026942F0040202610173012049
:1033400070470020704700002DE9F84F04460068E0
:1033500089460B9D01689846174641F480610160DB
:103360002068016841F48071016000954FF0011BF5
:103370000022594620460A9B00F0E4F84FF4007AF8
:1033800040B120680068C00501D5C4F840A0032002
:10339000BDE8F88F216809F0FE0008612B46284936
:1033A00020460A9A00F016F9F0BB2068416980694E
:1033B00000902A4620460A9900F0A2F940B1206CFC
:1033C00004283AD12068016841F40071016034E0BA
:1033D000FEB2B8F1010F09D02168380A08612A4607
:1033E00020460A9900F08CF90028E8D1206806618F
:1033F0002A4620460A9900F083F90028DFD1206888
:10340000016841F480710160009500225946204610
:103410000A9B00F097F80028B3D1216809F0FF005B
:1034200040F00100086100E007E02B460449204617
:103430000A9A00F0CFF80028AAD00120A8E70000DF
:10344000020001002DE9F843044600680D46DDE95D
:10345000089701689846164641F4807101604B4612
:1034600000224FF001112046009700F06BF848B1A0
:1034700020680068C00502D54FF400702064032066
:10348000BDE8F883216805F0FE0008613B464A4626
:103490001549204600F09EF888B920684169806986
:1034A00000903A464946204600F02AF948B1206C7F
:1034B000042804D12068016841F4007101600120F2
:1034C000DEE7F5B2B8F1010F09D02168300A0861D2
:1034D0003A464946204600F013F90028E7D1206813
:1034E00005610020CCE700000200010070B516461F
:1034F0000D4604461EE02046FFF70EFF08B10120EE
:1035000070BD681C16D0FEF7BDF8801BA84200D81D
:1035100085B920684069C04340070BD5002044F8B6
:10352000300F20216173A073216941F020012161D6
:103530002073E4E720684069C0434007DBD40020E3
:1035400070BD00002DE9F047984617460D46044629
:10355000C1F30746DDF820902AE000BFB8F1FF3F35
:1035600026D0FEF78FF8A0EB0901414502D8B8F14B
:10357000000F1DD12068012E16D0806925EA0000B9
:103580000004000C12D00020B84211D1002044F8F1
:10359000300F20216173A073216941F02001216166
:1035A00020730120BDE8F0874069E7E70120EBE7E1
:1035B0002068012E0AD0806925EA00000004000C72
:1035C00006D00020B842C9D00020EBE74069F3E7FD
:1035D0000120F7E72DE9F047984616460D460446C8
:1035E0004FF000094FF0200AC1F3074723E020689D
:1035F0004069C043400515D42068016841F400715A
:10360000016021686FF480604861C4F8309084F8EC
:103610003DA084F83E90216C41F00401216484F8BF
:103620003C9021E0701C06D0FEF72CF8A0EB0800BF
:10363000B04203D816B1012F1FD021E02068012F1E
:1036400015D0806925EA00000004000C18D000BFE6
:1036500044F8309F84F80DA084F80E90216941F061
:103660002001216184F80C900120BDE8F0874069B9
:1036700025EA00000004000CEAD12068406901E05E
:103680002068806925EA00000004000CAFD1ECE757
:103690002DE9F041002590460E460446202728E0FB
:1036A0004069C043C0060CD454F8301B6FF01000C2
:1036B000486144F810596777A577206A206225771A
:1036C00014E0FDF7DFFFA0EB0800B04200D886B998
:1036D00020684069C04340060BD544F8305F6773EB
:1036E000A573206940F02000206125730120BDE80A
:1036F000F08120684169C9434906D1D40020F6E72A
:1037000070B516460D4604461EE02046FFF704FE3F
:1037100008B1012070BD681C16D0FDF7B3FF801BF7
:10372000A84200D885B920684069C04300060BD57F
:10373000002044F8300F20216173A073216941F00B
:10374000200121612073E4E720684069C04300063E
:10375000DBD4002070BD00001FB500218DF80C10D7
:103760000A23012203A98DE80E00134602461C21FC
:103770000348FEF751F89DF80C0004B010BD00009E
:10378000900200200EB50A238DE80E0002460123A8
:103790001C210248FEF740F80EBD000090020020F8
:1037A00003B583B00A23012204A98DE80E00134655
:1037B00002461C210248FEF731F905B000BD0000A9
:1037C000900200207FB500241548009401940294D3
:1037D0001249039401604FF48031C0E9011404617F
:1037E000047680F820400F49C0E90A140125C5611C
:1037F000C46080F830404561FDF712FB08B1FDF769
:1038000066FA1120CDE90005694602940448FDF7E7
:1038100061FA002801D0FDF75AFA7FBD002001406F
:10382000D80100200100000F7FB500241548009446
:10383000019402941249039401604FF48031C0E96D
:1038400001140461047680F820400F49C0E90A148D
:103850000125C561C46080F830404561FDF7E0FA9C
:1038600008B1FDF734FA0820CDE900056946029455
:103870000448FDF72FFA002801D0FDF728FA7FBD94
:1038800000220140200200200100000F0F4810B567
:103890000D4901600321416000214FF41022816035
:1038A000C0E903124FF4001242610176417681763D
:1038B000C17601774177FDF71BFB002803D0BDE8F7
:1038C0001040FDF704BA10BD0064004068020020FB
:1038D000094808B5016841F4001101600068002240
:1038E00000F40010009005210C20FEF70BFABDE853
:1038F00008400C20FEF7F8B9303802402DE9F047B7
:1039000086B014216846FCF707FD5748002501687A
:1039100041F040010160016801F04001059101683A
:1039200041F002010160016801F0020105910168A6
:1039300041F001010160016801F001010591016898
:1039400041F008010160016801F00801059101687A
:1039500041F004010160016801F004010591016872
:1039600041F080010160016801F08001059101686A
:1039700041F020010160016801F02001059101681A
:1039800041F0100101600068DFF8E08000F01000F5
:103990000590012240214046FDF76EFE344F4FF462
:1039A000E056002231463846FDF766FEDFF8C49047
:1039B000012210214846FDF75FFEDFF8BCA001227E
:1039C00011465046FDF758FE01244020CDE9000481
:1039D00069464046CDE90245FDF756FD0096CDE922
:1039E0000145694638460395FDF74EFD08204FF422
:1039F0000416CDE90006694602944046FDF744FDF1
:103A0000CDE90045694648460295FDF73DFD102089
:103A1000CDE90004022569464846CDE90245FDF797
:103A200033FD3020CDE90006694602941348FDF7C6
:103A30002BFD0094694650460194CDE90245FDF7FF
:103A400023FD002205210920FEF75CF90920FEF77D
:103A50004BF9002205211720FEF754F91720FEF735
:103A600043F906B0BDE8F087303802400018024044
:103A7000001C024000000240000402400008024016
:103A80000D4810B50B4901600C49416000214FF40D
:103A900080428160C0E9031241618161C1610162BC
:103AA000FDF7F6FD002803D0BDE81040FDF70FB983
:103AB00010BD0000005C004090020020801A06004B
:103AC000104810B50E4901604FF482714160002129
:103AD00002228160C0E90312012242615202826126
:103AE0001822C0E90721416281620A21C162FEF702
:103AF000FDFB002803D0BDE81040FDF7E8B810BD7D
:103B000000300140E402002010B588B01C21684656
:103B1000FCF702FC144813490024C0E9001441F2E8
:103B20008731C0E9024104618461FEF7F1FD08B10B
:103B3000FDF7CDF80C48FFF754F808B1FDF7C7F8CA
:103B40006020CDE9000402940022694606480494EE
:103B5000FEF7E1FF08B1FDF7BAF80348FEF77EFF74
:103B600008B010BD00440140CC03002010B596B051
:103B700000240F9410941194129413941C216846FD
:103B80001494FCF7C9FB202107A8FCF7C5FB3448B7
:103B900032490160A721C0E9011444F61F61C0E960
:103BA000031444618461FEF7B3FD08B1FDF78FF89B
:103BB0004FF480500F900FA92948FEF747FE08B137
:103BC000FDF785F82648FFF70CF808B1FDF77FF8F8
:103BD000139413A922481494FEF752FD08B1FDF77F
:103BE00076F86020CDE900040294039404940594CF
:103BF000002269461A480694FEF78DFF08B1FDF7CA
:103C000066F8042269461648FEF785FF08B1FDF7FD
:103C10005EF8082269461248FEF77DFF08B1FDF7FD
:103C200056F80C2269460E48FEF775FF08B1FDF7FD
:103C30004EF80794089409944FF400500A94CDE983
:103C40000B4007A906480E94FEF7F0FC08B1FDF7FB
:103C50003EF80348FEF702FF16B010BD0000014019
:103C60003C03002010B58EB00024079408940994FA
:103C70000A940B941C2168460C94FCF74DFB1E48DB
:103C80001C49C0E9001445F20721C0E90241046162
:103C90008461FEF73DFD08B1FDF719F84FF480503F
:103CA000079007A91448FEF7D1FD08B1FDF70FF8FA
:103CB0001148FEF796FF08B1FDF709F80B940BA920
:103CC0000D480C94FEF7DCFC08B1FDF700F860200D
:103CD000CDE9000402940822694607480494FEF7DF
:103CE0001AFF08B1FCF7F3FF0348FEF7B7FE0EB06A
:103CF00010BD000000080040840300200C4810B5EF
:103D00000A4901604FF4E1314160002181600C22D9
:103D1000C160C0E904128161C161FFF7B7F90028F1
:103D200003D0BDE81040FCF7D2BF10BD0010014029
:103D3000140400200E4810B50C4901600D49416083
:103D40004FF48051816000214FF48062C0E903127A
:103D50000C22C0E90521C161FFF798F9002803D0C2
:103D6000BDE81040FCF7B3BF10BD000000480040A4
:103D70005C040020A08601000C4810B50A490160CF
:103D80004FF4E1314160002181600C22C160C0E943
:103D900004128161C161FFF779F9002803D0BDE801
:103DA0001040FCF794BF10BD00140140A404002093
:103DB00010B5F5EEC01A2DED108BF0EE419AB0EE75
:103DC00060AAF0EE40AAF1EE10FA84B0D84C09D106
:103DD000B5EEC02AF1EE10FA04D1F5EEC02AF1EEEC
:103DE00010FA7CD021EEA10A02EE020A02EEA20A2B
:103DF00002F05CFF21EE80FA62EE00EA22EE80EA39
:103E000023EE030A03EEA30A04EE040A02F04EFFB7
:103E100023EE009A63EE808A24EE008A94ED020A73
:103E2000D4ED020AF6EE00FA60EE200ACDED030AA8
:103E300094ED020AD4ED030A94ED041A94ED052AD8
:103E400020EE20DA94ED020AD4ED040A60EE20CAD6
:103E500094ED020AD4ED050A60EE201A94ED030AEF
:103E6000D4ED030A60EE200A94ED030A20EE011A55
:103E700094ED030A20EE02CA94ED040A94ED042A9C
:103E800060EE02DA94ED040A94ED052A60EE02BABF
:103E900094ED050A94ED052A20EE02BA3FEEED0AF4
:103EA00030EE4B2A8DED022A22EE090A31EE612A0C
:103EB00031EE211A8DED012A08EE820A3CEE2C2A01
:103EC00061EE091A3FEEE01A08EE020AB0EE002A8F
:103ED0008DED001A71EE4B0A20EE020A00E0ADE013
:103EE00048EEA01A7BEECD0A20EE000A48EE201A1A
:103EF000F0EE000A61EEA00A00EEA00A10EE100A31
:103F0000FCF770FB41EC100B01F0DEFD51EC100BE7
:103F1000FCF77BFB3CEE6C0A3BEE8D1A00EE900A40
:103F20009DED022A60EE091A7CEE8C2A48EE811A79
:103F30009DED001A62EEA02A71EE6D3AB0EE001A05
:103F400048EE231A21EE813A62EE201A9DED012AF5
:103F50003DEE2B1A43EE232A22EE202ADDED030A42
:103F600043EE001A70EE8B0A03EE012A68EEA23AC5
:103F700070EEEF0A48EE423A2EEEA03A0EEE413ACB
:103F80002FEE011A0EEEC01A33EE233A6EEE003A0F
:103F900029EE020A4FEE603A68EE210A08EEE10AC5
:103FA00049EE620A31EE000A94ED011A73EEA00A9E
:103FB000B5EEC01AF1EE10FA2CDD94ED011AD4ED35
:103FC000061A21EE032A9FED5B1A42EE011AC4ED98
:103FD000061AD4ED011A21EEA02AD4ED071A42EEFA
:103FE000011AC4ED071AD4ED011A21EE802AD4ED8E
:103FF000081A42EE011AC4ED081A94ED061A7AEE78
:1040000081AA94ED071A3AEE01AA94ED081A79EE06
:10401000819A07E09FED481A84ED061A84ED071A8D
:1040200084ED081A94ED001A41EE03AA94ED001AEB
:1040300001EE20AAD4ED000A40EE809A9FED3F1ACF
:1040400094ED033AD4ED041A2AEE810A6AEE010ACD
:1040500029EE811AD4ED053A23EE402AD4ED022A46
:1040600001EEE02A03EEC12AD4ED023A32EE232A11
:1040700084ED022A22EE802AD4ED053A01EE812A4F
:1040800003EEE02AD4ED033A32EE232A84ED032A2C
:1040900022EEA02AD4ED053A03EE412A22EE811A3F
:1040A00003EE201A03EE802AD4ED043A01EEC01A82
:1040B00032EE232A84ED042A94ED050A31EE000A3B
:1040C00084ED050A94ED020AD4ED020A94ED031A78
:1040D00020EE200AD4ED030A00EE810AD4ED040A92
:1040E00094ED041A00EE810AD4ED050A94ED051A48
:1040F00000EE810A02F0DAFDD4ED020A60EE800AD9
:10410000C4ED020AD4ED030A60EE800AC4ED030A8E
:10411000D4ED040A60EE800AC4ED040AD4ED050A69
:1041200020EE800A84ED050A04B0BDEC108B10BDB2
:10413000880000206F12833A000000006F12033ADB
:10414000FEE7FEE72DE9F041074617481C461546F5
:1041500000780E4608B901F035F9EFF311822020FE
:1041600080F311881049002000EB400301EBC303EA
:10417000DB691BB10B69401C8342F5DC0B69834290
:104180000BDD00EB400301EBC3018F61CE610D62DB
:1041900000238B624B62CC6201E04FF0FF30D1B262
:1041A00081F31188BDE8F081F85000202DE9F0413D
:1041B00004461448DDF818801D46007816460F4660
:1041C00008B901F0FFF80F48032C18D2EFF3118162
:1041D000202282F3118804EB440200EBC20060301D
:1041E0002CB107604660856000220261C260C0F8A1
:1041F0001480C8B280F311880020BDE8F0814FF030
:10420000FF30FAE7F85000202DE9F04705461C483A
:1042100016460C46007808B901F0D4F8184905EBA9
:10422000450001EBC007A046D7E91B950024603785
:104230004D4511D9B868441BB44200D33446786860
:10424000224641194046FCF74EF8B868361B254413
:10425000A044A84200D10025A9EB0500B04200D23D
:1042600006463EB17868324641194046FCF73BF8B5
:104270003444354404B13D612046BDE8F087000078
:10428000F85000202DE9F0410F46194900EB40009D
:1042900001EBC0041646A16A656AE0691834284437
:1042A000A94217D8A268521B531EB34201D332460B
:1042B00014E01944B14219D315463946FCF713F8F6
:1042C0002A46761B04D0B91832466068FCF70BF812
:1042D000E66008E0491B491EB14207D33946FCF7A6
:1042E00002F8A819E0600120BDE8F0810020FBE79A
:1042F000F8500020084810B50168054B054A0846EB
:1043000000F04CF8BDE810404FF0805000F0CABA01
:10431000BD5B0008D4A30008CC01002070B5EFF30A
:104320001185202080F311881B48A0F12F0401463D
:10433000626804E042F0800301F8013BD2097F2A61
:10434000F8D801F8012BA26805E000BF42F0800315
:1043500001F8013BD2097F2AF8D801F8012B226924
:1043600005E000BF42F0800301F8013BD2097F2A3B
:10437000F8D801F8012B002201F8012B182201F0D6
:10438000B1F8E8B280F31188606A002802D0BDE875
:104390007040004770BD0000DF5900202DE9F84350
:1043A0001E4617468846814600234FF480620D4919
:1043B0000DA0FFF7C7FE0E4CC0B20025607020763E
:1043C00008230C4A08A10095FFF7F0FE0A48256172
:1043D0004068C4F80490C4E90280C4E908762570F6
:1043E000BDE8F883B05500205379735669657700AE
:1043F000B0590020B4010020001000E010B5EFF328
:104400001184202080F3118804481122014601F014
:1044100069F8E0B280F3118810BD0000DF59002078
:1044200010B50146EFF31184202080F311880B486A
:10443000A0F12F0212698A1A014604E042F08003BB
:1044400001F8013BD2097F2AF8D801F8012B082294
:1044500001F048F8E0B280F3118810BDDF59002068
:1044600010B50146EFF31184202080F311880B482A
:10447000A0F12F0212698A1A014604E042F080037B
:1044800001F8013BD2097F2AF8D801F8012B042258
:1044900001F028F8E0B280F3118810BDDF59002048
:1044A00010B50146EFF31184202080F311880B48EA
:1044B000A0F12F0212698A1A014604E042F080033B
:1044C00001F8013BD2097F2AF8D801F8012B062216
:1044D00001F008F8E0B280F3118810BDDF59002028
:1044E0000A4810B5006A48B1006838B180470A46EA
:1044F0000146BDE810400D2000F02AB8044841688C
:10450000BDE810400C2000F005B80000B0590020B4
:10451000001000E070B50246EFF31184202080F314
:1045200011880A48034604E041F0800500F8015B69
:10453000C9097F29F8D800F8011B0146184600F088
:10454000D1FFE0B280F3118870BD0000DF59002078
:1045500070B50546EFF31184202080F311880F48D1
:10456000034604E041F0800600F8016BC9097F2989
:10457000F8D800F8011B04E042F0800100F8011BAC
:10458000D2097F2AF8D800F8012B01462A4618469E
:1045900000F0A8FFE0B280F3118870BDDF59002061
:1045A0002DE9F0410646EFF31184202080F31188B5
:1045B000154D284605E000BF41F0800700F8017B5B
:1045C000C9097F29F8D800F8011B04E042F08001F6
:1045D00000F8011BD2097F2AF8D800F8012B04E06B
:1045E00043F0800100F8011BDB097F2BF8D800F8AD
:1045F000013B01463246284600F074FFE0B280F3EA
:104600001188BDE8F0810000DF5900202DE9F0415C
:1046100017460246EFF31184202080F31188069E8E
:10462000194D284605E000BF41F0800C00F801CB91
:10463000C9097F29F8D800F8011B04E047F0800180
:1046400000F8011BFF097F2FF8D800F8017B04E078
:1046500043F0800100F8011BDB097F2BF8D800F83C
:10466000013B04E046F0800100F8011BF6097F2EB3
:10467000F8D800F8016B0146284600F033FFE0B29D
:1046800080F31188BDE8F081DF59002010B50246A3
:10469000EFF31184202080F311880448014600F0D4
:1046A00021FFE0B280F3118810BD0000DF59002027
:1046B00070B501461E484468002C38D0002003E045
:1046C0002469002C33D0401C8842F9D3EFF31186C3
:1046D000202080F31188174D284604E041F0800225
:1046E00000F8012BC9097F29F8D800F8011BA1683F
:1046F00005E000BF41F0800200F8012BC9097F29C5
:10470000F8D800F8011B8022216800F08DFE0146D8
:104710001622284600F0E6FEF0B280F31188002C45
:1047200005D0E068002802D0BDE87040004770BDA9
:10473000AC010020DF590020054810B54468002C6A
:1047400004D0E06800B180472469F8E710BD00009C
:10475000AC01002010B5EFF31184202080F3118804
:104760000B4A0A480146127805E000BF42F0800378
:1047700001F8013BD2097F2AF8D801F8012B1B224E
:1047800000F0B0FEE0B280F3118810BDDF590020C8
:10479000AC01002070B5EFF31185202181F3118861
:1047A000074C01468022204600F03EFE01460E22C4
:1047B000204600F097FEE8B280F3118870BD00003B
:1047C000DF5900202DE9F0410546EFF31186202046
:1047D00080F311882C4C2968A4F12F0720463A69F0
:1047E000891A04E041F0800200F8012BC9097F29F1
:1047F000F8D800F8011BA96805E000BF41F080026D
:1048000000F8012BC9097F29F8D800F8011B2022E4
:10481000696800F009FE01460922204600F062FEA8
:1048200028683A692146801A05E000BF40F08002FE
:1048300001F8012BC0097F28F8D801F8010BE868BE
:1048400005E000BF40F0800201F8012BC0097F287D
:10485000F8D801F8010B286905E000BF40F080029C
:1048600001F8012BC0097F28F8D801F8010B0020BE
:1048700001F8010B1522204600F034FEF0B280F35F
:104880001188BDE8F0810000DF5900200448006A6B
:10489000002803D04068002800D00047704700007F
:1048A000B05900200149086170470000B05900204C
:1048B00001490969401A7047B059002070B5294C68
:1048C00001202070EFF31185202686F3118860788F
:1048D0000A222549FFF7D6FCE8B280F311880A20A6
:1048E000FFF7D4FEEFF3118586F3118804F12F0052
:1048F0000146626805E000BF42F0800301F8013B19
:10490000D2097F2AF8D801F8012BA26805E000BF80
:1049100042F0800301F8013BD2097F2AF8D801F860
:10492000012B226905E000BF42F0800301F8013B42
:10493000D2097F2AF8D801F8012B002201F8012BB7
:10494000182200F0CFFDE8B280F31188606A00B150
:104950008047FFF7C5FDFFF799FFBDE87040FFF7FF
:10496000F9BE0000B0590020B8A3000870B5EFF3FD
:104970001184202080F311880748A0F12F052978A1
:1049800029B10B22014600F0ADFD00202870E0B2F5
:1049900080F3118870BD0000DF59002070B5EFF37F
:1049A0001185202181F311880A4C0146802220467E
:1049B00000F03AFD012100F8011B002100F8011B65
:1049C00001461A22204600F08DFDE8B280F31188DE
:1049D00070BD0000DF590020F8B515460E460B46A5
:1049E000009204460122022100F03CF8A0B91348CD
:1049F00013490068B0FBF1F04FF47A71484300901E
:104A00006068B0F5827F0DD13346002280212046B8
:104A1000009500F027F870B1606D40F020006065EF
:104A20000320F8BD009830B1401E009020688068D7
:104A3000C0430006F6D50020F8BD0000CC010020E0
:104A400000366E0101B582B04FF47A7000900123F8
:104A500001AA02A90248FDF7EFFC9DF804000EBD73
:104A6000E40200202DE9F8431E469146884604469C
:104A7000089DFCF707FE401B351AFCF703FE0746AE
:104A800026480068C0F3CB3068430AE0701C09D0A8
:104A9000FCF7F8FDC01BA8420FD275B10098B8B35F
:104AA000401E00902068816838EA010033D0002160
:104AB0004945EBD10020BDE8F8832068416821F02A
:104AC000E00141606068B0F5827F0BD1A068B0F56D
:104AD000004F02D0B0F5806F04D12068016821F04A
:104AE00040010160A06AB0F5005F09D1206801684B
:104AF00021F4005101602068016841F40051016017
:104B0000012084F85100002084F850000320D2E7EF
:104B1000FFE70025C6E70121CAE70000CC0100201D
:104B20002DE9F8430C46174680461E46052213A180
:104B30002046089DFBF710FC00281CD0114A106885
:104B4000082804D3BDE8F8430F48FFF727BF00EB60
:104B500080010E4B401C43F8218003EB810133465A
:104B6000C1E90147C1E9036510603A462146404664
:104B7000009500F00DF8BDE8F883000049646C650D
:104B800000000000BC010020C4A60008BC5A0020A0
:104B90002DE9F04186B00D4604461F461646142105
:104BA0006846DDF83080FBF7B7FB8DE8F00168461A
:104BB000FFF708FE06B0BDE8F08110B54FF0E02029
:104BC000006905F065F9012803D0BDE8104004F044
:104BD00019BE10BD30B593B030216846FBF79CFB81
:104BE00014210CA8FBF798FB1D480025016841F033
:104BF00080510160006800F08050119019480168F0
:104C000041F4804101600068022400F4804011906A
:104C100001200090000401908001CDE906400620AB
:104C20000890A820CDE9090407200B906846FDF7FD
:104C3000A7F908B172B6FEE70CA90F2081E8310090
:104C40004FF4A0500F904FF48050109005210CA805
:104C5000FDF78AF8002801D072B6FEE713B030BD28
:104C600040380240007000400248016841F4700181
:104C70000160704788ED00E00148FDF756BE000076
:104C80004C050020F0B50268274B284D284E294FCF
:104C9000294C4FF0804C984209D0604507D0A8427B
:104CA00005D0B04203D0B84201D0A04204D122F0D6
:104CB000700E4A6842EA0E0298421BD0604519D035
:104CC000A84217D0B04215D0B84213D0A04211D09C
:104CD0001A4DA8420ED01A4DA8420BD0194DA84229
:104CE00008D0194DA84205D0184DA84202D0184D41
:104CF000A84203D122F44075CA682A434D6922F0C4
:104D000080022A438D68C5620D688562984201D091
:104D1000A04201D109690163016841F00401016009
:104D2000012141610260F0BD00000140000400402B
:104D300000080040000C0040000401400040014019
:104D4000004401400048014000180040001C0040A1
:104D50000020004010B501F01F030121046A9940B2
:104D60008C430462016A9A401143016210BD10B580
:104D7000846842EA032224F47F440A432243826087
:104D800010BD826822F070020A4342F00701816080
:104D900070470000F0B5036A026A22F00102026265
:104DA00042688469124E24F073050C682C4323F08A
:104DB00002058B682B430D4DA84201D0B04205D1AE
:104DC00023F00807CB683B4323F00403A84201D03B
:104DD000B04205D14D6922F4407215438A692A43D5
:104DE00042608461496841630362F0BD0000014094
:104DF00000040140F0B5026A036A23F01003036265
:104E0000436884690D6824F4E64444EA05248D6807
:104E100022F0200242EA05120F4D104EA84201D0A6
:104E2000B04206D1CF6822F0800242EA071222F097
:104E30004002A84201D0B04207D14D6923F440633B
:104E400043EA85038D6943EA8503436084614968C9
:104E500081630262F0BD00000000014000040140D7
:104E6000F0B5026A036A23F4807303624368C4697D
:104E700022F4007224F073050C68124E2C438D68E6
:104E800042EA05220E4DA84201D0B04206D1CF68B9
:104E900022F4006242EA072222F48062A84201D092
:104EA000B04207D14D6923F4405343EA05138D699D
:104EB00043EA05134360C4614968C1630262F0BDFF
:104EC000000001400004014030B5046A026A22F487
:104ED000805202624268C3690D6823F4E64343EAE4
:104EE00005238D6824F4005444EA0534084DA84293
:104EF00002D0084DA84204D14D6922F4804242EA12
:104F000085124260C36149680164046230BD0000DB
:104F1000000001400004014010B5036A046A24F057
:104F200001040462846924F0F00444EA021423F0CA
:104F30000A020A438461026210BD10B5036A046A62
:104F400024F010040462846923F0A00324F4704464
:104F500044EA023243EA01118261016210BD10B5D8
:104F6000806B0021C185FDF74FFF10BD70B5846BCC
:104F70002068406994F84110C0F3C0100025212931
:104F800004D118B1E584204600F08EF8206840690D
:104F900094F84210C0F38010222904D118B1E5859D
:104FA000204600F05AF8606C40F010006064204623
:104FB000FDF72AFF70BD10B50146806B09680968CE
:104FC0004FF00002C9052ED4C28501680C3151E8AA
:104FD000003F23F4807341E80034002CF5D10168D0
:104FE000143151E8003F23F0010341E80034002C64
:104FF000F5D10168143151E8003F23F0400341E846
:105000000034002CF5D1202180F84210016B0129D9
:1050100009D101680C3151E8003F23F0100341E849
:105020000034002CF5D14263016B012902D0FEF758
:105030001FF910BD818DFDF797FE10BD10B5806B77
:1050400001214163016B012902D0FEF712F910BD65
:10505000818D4908FDF788FE10BD01680C3151E8CB
:10506000002F22F4907241E80023002BF5D1016853
:10507000143151E8002F22F0010241E80023002BF7
:10508000F5D1016B012909D101680C3151E8002FDC
:1050900022F0100241E80023002BF5D1202180F8F6
:1050A000421000210163704701680C3151E8002F64
:1050B00022F0C00241E80023002BF5D1202180F826
:1050C0004110704708B590F84210222901D0022003
:1050D00008BD82684FF480539A4201D1016921B121
:1050E000816A9A421BD04AB10AE00268816A52681A
:1050F000C2F308020A80816A891C08E0026972B161
:105100000268526802F07F020A70816A491C81625B
:10511000C18D491E0904090CC18503D01BE002683A
:105120005268F1E70168CA6822F02002CA6001688B
:10513000CA6822F48072CA6001684A6922F00102DA
:105140004A61202180F8421000214163026B012A4C
:1051500003D0FEF78DF8002008BD016301680C3113
:1051600051E8002F22F0100241E80023002BF5D176
:1051700001680A68D20602D50A6849680091818DE3
:10518000FDF7F2FDE7E7000070B50446006801692D
:10519000E26821F44051114301612169A068E2698C
:1051A00008436169114308432168CA6849F20C63E6
:1051B0009A430243CA6020684169A26921F44071A0
:1051C0001143416131492068884202D03049884208
:1051D00002D1FCF793FE01E0FCF780FEE2690023B8
:1051E000192164253226B2F5004F626828D0A0FB51
:1051F0000101930F9200FBF745F80146B0FBF5F073
:105200006FF01802504301EB800006EB0010B0FB7A
:10521000F5F000F0F002B1FBF5F002EB0012B1FB8B
:10522000F5F06FF01803584301EB800006EB001017
:10523000B0FBF5F000F00F0021681044886070BDED
:10524000A0FB010192185B41FBF71CF80146B0FB83
:10525000F5F00201B1FBF5F06FF01803584301EBD4
:10526000800006EBC000B0FBF5F000F0F80002EBA8
:105270004002B1FBF5F0584301EB800006EBC000A3
:10528000B0FBF5F000F00700D6E700000010014089
:105290000014014038B5816204468285002013461F
:1052A0006064222284F84220E56B1F4AEA63E56BC2
:1052B0001E4A2A64E56B1E4AEA64E26B10650A46E0
:1052C0002168E06B091DFCF76BF830B110206064B9
:1052D000202084F84200012038BD20680168406821
:1052E0000090206948B120680C3050E8001F41F45C
:1052F000807140E80012002AF5D12068143050E88F
:10530000001F41F0010140E80012002AF5D1206899
:10531000143050E8001F41F0400140E80012002A1C
:10532000F5D1002038BD0000B74F00083D500008FF
:105330006D4F00082DE9F843984617460D46044680
:10534000089E24E0701C22D0FCF79CF9A0EB08001A
:10535000B0421AD8CEB12068C168490717D5802D50
:1053600015D0402D13D00168C94309070FD4016837
:105370000025406800902046FFF76FFE082060641B
:1053800084F840500120BDE8F8830320FBE7206843
:10539000006835EA000004D00020B842D2D00020D6
:1053A000F1E70120F9E700000148FDF72FBD0000FB
:1053B000140400200148FDF729BD00005C04002012
:1053C000FEE7000010B5134CA8212046FAF7A4FF11
:1053D00003202061606110A0A06104F1A800E061D9
:1053E0004FF4806020620020A0626062E0620AA147
:1053F000216604F5956161661021A1662067E0666B
:1054000060670849C0F10F028A5C2254401C1028D2
:10541000F8D310BDF85000205465726D696E616C50
:1054200000000000A7A3000830B50346401C0C464E
:10543000802A04D97F2204E000F8015B491C521E37
:1054400002D30D78002DF7D1091B197030BD000073
:1054500038B5234C01226946207EFEF7D5FE002890
:105460001CD09DF80000052825D008DC012816D0A6
:10547000022817D0032818D0042808D118E00628DD
:105480001CD007281DD07F2808D080281CD0802859
:1054900004D3207E01226946FEF7B6FE38BDFFF731
:1054A0000DFA38BDFFF762FA38BDFFF719F838BDBD
:1054B000FFF7ECF938BDFEF731FF38BDFFF74AF9C9
:1054C00038BDFFF739F938BD207E01226946FEF765
:1054D0009BFE0028F7D09DF80000FFF7E9F838BDE3
:1054E000B05900202DE9F0474A4D07461446287868
:1054F0000E464FF00109012808D0002875D0022877
:1055000004D100F08DF8287801286ED1202C04D227
:10551000E96909FA04F0014267D1E2B2182C0ED30E
:10552000F01B7F2807D9C1097B1E40F0800019704D
:1055300007F8020D01E007F8010D7F2C02D2791E59
:105540000A7039E0E0B240F08000B4F5804F04D238
:10555000E2097B1EB91E1A701DE0802343EAD411B4
:10556000CAB2B4F5001F06D2A30B7C1E2370BB1E6B
:10557000F91E1A700FE0802141EA943101F0FF0C0E
:10558000B4F1805F09D2630D7C1E2370FB1E07F807
:1055900002CC1A70391F08700EE04FEA147843EA03
:1055A0005453BC1E07F8018C23703B1F394607F883
:1055B00003CC1A7001F8050D17484468E868201AF2
:1055C00005E000BF40F0800206F8012BC0097F28EB
:1055D000F8D806F8010B721A6878FEF753FE08B186
:1055E000EC6002E02878401C2870287E00EB400127
:1055F0000A4800EBC100C16E006F814208D0A87854
:10560000002805D185F80290FFF722FF0020A8703E
:10561000BDE8F087B0590020001000E0F8500020ED
:105620003EB50120164C8DF800006A46501C616999
:1056300005E000BF41F0800300F8013BC9097F2964
:10564000F8D800F8011B0F494D68E168691A04E0B9
:1056500041F0800300F8013BC9097F29F8D800F820
:10566000011B821A60786946FEF70CFE20B1E560E6
:105670002178491E21703EBD6169491C61613EBDB2
:10568000B0590020001000E00FB4054B10B503A97D
:10569000044A029800F09EFB10BC5DF814FB000069
:1056A0001D6B0008D00100204100080218BF042033
:1056B0000A0E18BF40F001004FF07F4232EA0101AC
:1056C00008BF40F00200012808BF05207047090705
:1056D000090E002804DB00F1E02080F80014704778
:1056E00000F00F0000F1E02080F8141D704700006A
:1056F00010B54FF00E402DED028BB0EE408A18EE43
:10570000104A00EB4400B0F1506F4AD84FF0FC4013
:10571000B0EB440F22D2B0EEC80AF7EE000A30EE2A
:10572000C00AF6EE000A60EE208A18EE900A03F036
:105730007FFB01EE100A14F0004F1DBFDFED2D0AB4
:105740009FED2D0AB1EE411ADFED2C0A08BF9FED47
:105750002C0AF8EE001A21EE218A05E0DFED290A75
:1057600068EE088AB0EE600A9FED271ADFED271A6F
:1057700030EE080A48EE811A9FED251A08EEA11AAC
:10578000DFED241A48EE811A9FED231A08EEA11AC4
:1057900068EE281ABDEC028B01EE810A30EE200A79
:1057A00010BD4FF0E440B0EB440F0CD918EE100AD6
:1057B000FFF77AFF042808BF00F0D2F9B0EE480ADC
:1057C000BDEC028B10BD4FF07F40B0EB440F07D211
:1057D000B0EE480ABDEC028BBDE8104000F0B1B954
:1057E000012000F0D5F9BDEC028BBDE8104000F0BF
:1057F000AFB900000000C9BF22AAFDB90000C93F2F
:1058000022AAFD390000000024FE1C3DC78AD83CB6
:105810001E67383D1B93993DAFAA2A3E70B54FF0E5
:1058200068422DED048BF0EE408A18EE900AB0EE3F
:10583000608A18EE101A02EB4003B3F1654F3CBFCB
:1058400002EB4102B2F1654F7DD200BFC0F3C753F6
:10585000C1F3C7529A1A1B2A09DD10F0004F14BF7A
:105860009FED830A9FED830ABDEC048B70BD12F19E
:105870001A0F36DA11F0004F09D010F0004F0CBFAC
:105880009FED7D0A9FED7D0ABDEC048B70BD88EE17
:10589000889A19EE100AFFF707FF042808BF00F0E6
:1058A0005FF918EE900AFFF7FFFE054618EE100AA2
:1058B000FFF7FAFE044619EE100AFFF7F5FE042D75
:1058C00018BF052D08D1042C18BF052C04D10028C1
:1058D00004BF022000F05CF9B0EE490ABDEC048B75
:1058E00070BD4200B2EB410F3AD910F0004F19BF22
:1058F000DFED630A9FED630ADFED630A9FED630A44
:10590000B0EE481A0A46B1EE688A80F00041F0EE27
:10591000418A10460A1A5200B2F1807F34D24840C0
:1059200010F0004FDFED5A1A9FED5A2A1DBFBEEE50
:10593000001A70EEE10A30EE420AB6EE001A08BF15
:1059400070EEA10A00E040E008BF30EE020AB0EEBF
:10595000682A01EE482A08EE818AC2EE081A15E08C
:1059600011F0004F04BF9FED4C0AF0EE400AD1D079
:1059700010F0004F19BFDFED490A9FED490ADFED36
:10598000490A9FED490AC5E7C8EE881A21EEA11A17
:105990009FED462ADFED462A41EE022A9FED452A79
:1059A00001EE222ADFED442A41EE022A9FED432A2E
:1059B000BDEC048B01EE222A21EE811A01EE020ACF
:1059C00030EE210A30EE200A70BD4FF07F42B2EB7C
:1059D000400F28BFB2EB410F09D2F0EE480AB0EEFB
:1059E000680ABDEC048BBDE8704000F0ADB840EA39
:1059F00001035B0008BF41F0FF410BD0B2EB400F49
:105A000008BFB2EB410F08D120F0804008EE900AA9
:105A100021F0804108EE101A18E7B2EB400F12BFD8
:105A20005FEA410340F0FF4001F000413FF40EAF58
:105A3000B2EB410F12BF5FEA400200F0004041F0BC
:105A4000FF413FF403AF4A0092EA40033FF5FEAE48
:105A5000002AACBF9FED1A0A9FED1A0A68EE808AF1
:105A600028EE008A18EE900A18EE101AEEE60000F2
:105A7000DB0FC9BFDB0FC93FDB0F4940DB0F49C05C
:105A80000000C9BF22AAFDB90000C93F22AAFD3902
:105A90000060ED3EC30ACE3700000000000049C0A0
:105AA00022AA7DBA0000494022AA7D3A2DAD65BDEB
:105AB0008FB8D53D0FB511BE61C84C3EA8AAAABE8D
:105AC0000000804F0000802F00B52DED048BB0EE5C
:105AD000409AF0EE609A83B051EC190BFAF7FBFE96
